:020000020000FC
:20000000008400141001483A10BFF80400BFFD1600400434084091140800683A0000000009
:20000800DEFFED04DFC00015D8400215D8800315D8C00415D9000515D9400615D98007156A
:20001000D9C00815000B307ADA000915DA400A15DA800B15DAC00C15DB000D15DB400E15C4
:20001800DB800F15DBC01015D9401115EBFFFF04DBC012150009313A2880004C10000326FA
:200020002000022601000FC000000706DF401215E8BFFF17E93FFF0401001D001000021E1F
:20002800EBFFFF04DBC01215D9401117DF401217DFC000172801707AD8400217D880031714
:20003000D8C00417D9000517D9400617D9800717D9C00817DA000917DA400A17DA800B17F2
:20003800DAC00C17DB000D17DB400E17DB800F17DBC01017DEC01304EF80083ADEFFF90429
:20004000DFC00615DF000515DF0005040001883A0005313AE0BFFE15E0BFFE17E0BFFB15BD
:20004800E03FFD1500800044E0BFFC15E0FFFB17E0BFFC171884703A1000142600800474C8
:200050001089E904E0FFFD17180690FA10C5883A10C00017008004741089E904E13FFD173F
:20005800200890FA1105883A10800104108000171009883A183EE83A0001883A0005313A3C
:20006000E0BFFF15E0BFFF1700000706E0BFFC171085883AE0BFFC15E0BFFD1710800044CB
:20006800E0BFFD15003FE106E0BFFB15E0BFFB17103FDB1E0001883A0001883AE037883A9A
:20007000DFC00117DF000017DEC00204F800283ADEFFFB04DFC00415DF000315DF00030454
:20007800E13FFF15000531FAE0BFFD15E0BFFD1710801F0C1004D0BAE0BFFD150005333A24
:20008000E0BFFE15D0A4241710000726D0A42417E0FFFD17E1BFFE17E17FFF171809883A12
:20008800103EE83A00000206003DA03A0005883AE037883ADFC00117DF000017DEC00204D8
:20009000F800283A008200141000003310BFF80400BFFD1606C00834DEC0001406800474CE
:20009800D6A5B514008004741089CB1400C0047418CA291410C0032610000015108001048A
:2000A00010FFFD36010E39C0010E5300003FFF06DEFFFB04DF000415DF000404E13FFD1563
:2000A800E17FFE15E1BFFF15E0BFFE17E0BFFC1500000E06008004741081BB04E0FFFC175F
:2000B00018C7883A18C7883A10C5883A10C00017E0BFFD171880021EE0BFFC170000070646
:2000B800E0BFFC1710800044E0BFFC15E0FFFC17E0BFFF1718BFEF160005883AE037883ACF
:2000C000DF000017DEC00104F800283ADEFFFD04DFC00215DF000115DF000104E13FFF158C
:2000C80001800EC4000B883AE13FFF17010029001000052601800EC4000B883AE13FFF1707
:2000D0000100290000002206E0BFFF1710BFFFC401800EC4000B883A1009883A0100290052
:2000D80010000726E0BFFF1710BFFFC401800EC4000B883A1009883A010029000000140645
:2000E000E0BFFF1710BFFF8401800EC4000B883A1009883A0100290010000726E0BFFF17E2
:2000E80010BFFF8401800EC4000B883A1009883A0100290000000606E0BFFF1710BFFF44AE
:2000F00001800EC4000B883A1009883A01002900E037883ADFC00117DF000017DEC00204A1
:2000F800F800283ADEFFFD04DFC00215DF000115DF000104E13FFF150180190401400E847C
:20010000E13FFF1701002900100005260180190401400E84E13FFF1701002900000022064B
:20010800E0BFFF17108000440180190401400E841009883A0100290010000726E0BFFF17E6
:20011000108000440180190401400E841009883A0100290000001406E0BFFF1710800084A2
:200118000180190401400E841009883A0100290010000726E0BFFF171080008401801904AD
:2001200001400E841009883A0100290000000606E0BFFF17108000C40180190401400E8461
:200128001009883A01002900E037883ADFC00117DF000017DEC00204F800283ADEFFFC0451
:20013000DFC00315DF000215DF000204E13FFF15E03FFE15E0BFFF1710800C501000021EE6
:2001380000800C44E0BFFF15E13FFF17010030C0D0A41715E13FFF1701003E40D0A4181507
:20014000008004741089DA041080001710800E101000771ED0A41617108000C81000741E9B
:20014800008004741089DA0410C00017D0A417171885C83A1000010E0085C83A1009883A7F
:20015000008004741089DA0410C00017D0A418171885C83A1000010E0085C83A20802A0E79
:20015800D0A4181710800144E0BFFE15E0BFFE17014017C41009883A0100E980E0BFFE1596
:20016000008004741089DA0410C00417008004741089DA0410C00515008004741089DA045D
:2001680010C00317008004741089DA0410C00415008004741089DA0410C0021700800474E5
:200170001089DA0410C00315008004741089DA0410C00117008004741089DA0410C0021563
:20017800008004741089DA0410C00017008004741089DA0410C00115008004741089DA044D
:20018000E0FFFE1710C00015008004741089DA0410C00017D0A417171885C83A1000010ED0
:200188000085C83A1009883A008004741089DA0410C00017D0A418171885C83A1000010E3E
:200190000085C83A11009C0ED0A41817E0BFFE15E0BFFE17014017C41009883A0100E980A3
:20019800E0BFFE15008004741089DA0410C00417008004741089DA0410C0051500800474EA
:2001A0001089DA0410C00317008004741089DA0410C00415008004741089DA0410C002172E
:2001A800008004741089DA0410C00315008004741089DA0410C00117008004741089DA041A
:2001B00010C00215008004741089DA0410C00017008004741089DA0410C0011500800474A5
:2001B8001089DA04E0FFFE1710C0001500007206008004741089DA0410C00017D0A4171767
:2001C0001885C83A1000010E0085C83A1009883A008004741089DA0410C00017D0A4181706
:2001C8001885C83A1000010E0085C83A2080290ED0A41717E0BFFE15E0BFFE17014017C4D7
:2001D0001009883A0100E980E0BFFE15008004741089DA0410C00417008004741089DA044F
:2001D80010C00515008004741089DA0410C00317008004741089DA0410C004150080047474
:2001E0001089DA0410C00217008004741089DA0410C00315008004741089DA0410C00117F1
:2001E800008004741089DA0410C00215008004741089DA0410C00017008004741089DA04DC
:2001F00010C00115008004741089DA04E0FFFE1710C00015008004741089DA0410C000176B
:2001F800D0A417171885C83A1000010E0085C83A1009883A008004741089DA0410C00017CF
:20020000D0A418171885C83A1000010E0085C83A1100290ED0A41817E0BFFE15E0BFFE17A5
:20020800014017C41009883A0100E980E0BFFE15008004741089DA0410C004170080047471
:200210001089DA0410C00515008004741089DA0410C00317008004741089DA0410C00415BC
:20021800008004741089DA0410C00217008004741089DA0410C00315008004741089DA04A8
:2002200010C00117008004741089DA0410C00215008004741089DA0410C000170080047432
:200228001089DA0410C00115008004741089DA04E0FFFE1710C00015E0BFFE17E037883A84
:20023000DFC00117DF000017DEC00204F800283ADEFFFA04DFC00515DF000415DF00040490
:20023800E13FFF15E0BFFF17E0BFFD1500C002840080083410840D0410C00035E0BFFD17AD
:200240001085883A1007883A0080083410840C0410C00035E0BFFD171085883A10C00054DB
:200248000080083410840C0410C00035E0BFFD171085883A1007883A0080083410840C04EE
:2002500010C0003501000044010E84000001883A0080083410840C04108000371080004CEB
:20025800103FFB260080083410840D04108000371009883A010187401007883AE0FFFE157F
:2002600001515C7429680004E13FFE170100FC801007883AE0FFFE150150CD34E13FFE17C3
:20026800010140801007883AE0FFFE15E13FFE1701018040E0BFFC15E0BFFD171000031E5E
:20027000E0BFFC1710BFFF04E0BFFC15E0BFFC170080021600800044E0BFFC15E0BFFC17CA
:20027800E037883ADFC00117DF000017DEC00204F800283ADEFFFA04DFC00515DF00041556
:20028000DF000404E13FFE15E17FFF150100008401008D00E0BFFC150100004401008D003A
:20028800E0BFFD15E0BFFC17014002441009883A0100E14010800264E0BFFC15E0BFFD1716
:20029000014003041009883A0100E14010800324E0BFFD15E0BFFE17014002441009883A8B
:200298000100E14010800264E0BFFE15E0BFFF17014003041009883A0100E14010800324CB
:2002A000E0BFFF15E0FFFC17E0BFFE171880150EE0FFFD17E0BFFF171880040E00C0028492
:2002A800008008341084080410C00035E0BFFD17E0FFFF171880040E00C0024400800834C1
:2002B0001084080410C00035E0FFFD17E0BFFF171880041E00C00204008008341084080405
:2002B80010C00035E0BFFC17E0FFFE171880150EE0FFFD17E0BFFF171880040E00C0018429
:2002C000008008341084080410C00035E0BFFD17E0FFFF171880040E00C0014400800834AA
:2002C8001084080410C00035E0FFFD17E0BFFF171880041E00C001040080083410840804EE
:2002D00010C00035E0FFFC17E0BFFE171880151EE0FFFD17E0BFFF171880040E00C0008402
:2002D800008008341084080410C00035E0BFFD17E0FFFF171880040E00C000440080083493
:2002E0001084080410C00035E0FFFD17E0BFFF171880041E0007883A0080083410840804D2
:2002E80010C0003501128E04010E84000007883A008008341084080410C000350001883ACC
:2002F000E037883ADFC00117DF000017DEC00204F800283ADEFFF904DFC00615DF000515DD
:2002F800DF000504E03FFE15E03FFB15000013060080047410828304E0FFFB1718C7883AE1
:2003000018C7883A10C5883A1080001700C021441889C83A0080047410828304E0FFFB1734
:2003080018C7883A18C7883A10C5883A11000015E0BFFB1710800044E0BFFB15E0BFFB17F1
:2003100010801910103FEA1E0009883A01008D00D0A41615D0A416171009883A010030C058
:20031800D0A41715D0A416171009883A01003E40D0A41815008004741082E704108000176D
:20032000D0E4161718801B16E03FFC1500001606008004741082E704E0FFFC1718C7883ABF
:2003280018C7883A10C5883A108000170180190401400E441009883A010029001009883AC5
:20033000008004741089DA04E0FFFC1718C7883A18C7883A10C5883A11000015E0BFFC179B
:2003380010800044E0BFFC15E0BFFC1710800150103FE71E008004741082EC0410C00017D9
:20034000D0A4161718801B16E03FFD1500001606008004741082EC04E0FFFD1718C7883AD8
:2003480018C7883A10C5883A1080001701800E44000B883A1009883A010029001009883A36
:20035000008004741089DA04E0FFFD1718C7883A18C7883A10C5883A11000015E0BFFD1779
:2003580010800044E0BFFD15E0BFFD1710800150103FE71E0009883A01008D00D0A4161520
:2003600000802584E0BFFF15E17FFF17010004742100FF040101A2C0D0A4161710800CD01D
:200368001000051ED0A41617014016841009883A01009F4000001406D0A416171009883A75
:2003700001004BC0E0BFFE150080047410821F04E0FFFE1718C7883A18C7883A10C5883A35
:20037800110000170080047410828304E0FFFE1718C7883A18C7883A10C5883A10800017B8
:20038000100B883A01009F4001138804010E8400003FD80620001B16000F883A28001616DA
:20038800200D883A29001A2E0080080400C000440000010610000D26294B883A10BFFFC453
:2003900018C7883A293FFB360005883A180007260005883A31400236314DC83A10C4B03A59
:200398001806D07A280AD07A183FFA1E380001260085C83AF800283A014BC83A39C0005C0F
:2003A000003FE7060109C83A01C00044003FE30600C00044003FEE0620001716000F883A83
:2003A8002005883A280012162900162E0180080400C000440000010630000A26294B883A63
:2003B00031BFFFC418C7883A293FFB36180005261806D07A114001361145C83A280AD07A39
:2003B800183FFB1E380001260085C83AF800283A014BC83A003FEC060109C83A01C00044E5
:2003C000003FE70600C00044003FF106200D883A2900152E280014160080080400C000447A
:2003C8000000020610000E2628000516294B883A10BFFFC418C7883A293FFA36180008263F
:2003D0000005883A31400236314DC83A10C4B03A1806D07A280AD07A183FFA1EF800283AB2
:2003D8000005883AF800283A00C00044003FF4062005883A2900122E28001116018008047B
:2003E00000C000440000020630000C2628000516294B883A31BFFFC418C7883A293FFA362A
:2003E800180006261806D07A114001361145C83A280AD07A183FFB1EF800283AF800283AC9
:2003F00000C00044003FF706DEFFF504200CD5FADCC004152026D7FA00C02034DD80071583
:2003F800DD000515DC80031518FFFFC4DFC00A15DF000915DDC00815DD400615DC400215C0
:20040000DC00011535003FCC1924703A9D803FCCA000522600803FC4A0802E2691002034A7
:20040800202490FAA53FE0440021883A002F883A280CD5FA282AD7FA00C0203418FFFFC416
:2004100031803FCC1962703AAF003FCC30004A2600803FC43080452689402034282290FA02
:2004180031BFE044000B883A2C20B03A802090BA008004341084250480A1883A81000017D3
:200420009D46F03A180F883A18803FCCA18DC83A2000683A00101278001010FC0010126CED
:20042800001010E80010126C001012440010126C001010E8001010FC001010FC0010124484
:20043000001010E80010135800101358001013580010130C9000581E0400020405C00084AB
:20043800003FD3060023883AE02D883A282F883A00800084B8808F1EB005883A11C0004C42
:20044000013FFFC4000D883A21003FCC200895FA38803FCC00C02034100497FA18FFFFC491
:2004480030C6703A1906B03A1884B03ADFC00A17DF000917DDC00817DD800717DD40061735
:20045000DD000517DCC00417DC800317DC400217DC000117DEC00B04F800283A90002B1E5D
:200458000400010405C00044003FB1068800251E014000840000020688001A1E014000449F
:200460008160B03A802090BA00C0043418C4690480E1883A80C000179D44F03AA18DC83AD1
:200468001800683A001010FC001010FC00101348001010E4001013480010124400101348D7
:20047000001010E4001010FC001010FC00101244001010E400101358001013580010135855
:20047800001013708809883A0101998010FFFEC410801D8488E2983A008DC83A000B883AC9
:20048000003F9906014000C4003F97069009883AD94000150101998010FFFEC411801D84F6
:2004880090E4983A01A9C83A0021883A002F883AD9400017003F7E060400030405C000C407
:20049000003F7B0601802034000F883A31BFFFC4013FFFC4003FAC06014000442909C83A86
:2004980000C006C419004B0E114E703A0009883A000D883A003FA4069006917A8822917A66
:2004A0001C40372E31BFFFC4010006C4000B883A180F883A294B883A18C7883A3800011621
:2004A8001C4002361C47C83A29400054213FFFC4203FF71E1806C03A1962B03A31001FC456
:2004B000013FE50E88C001CC1800042688C003CC01400104194001268963883A88C2002CA1
:2004B8001800042600FE003418FFFFC43100200488E2703A00C03F84193F8016880C91BA1D
:2004C00011C0004C300CD27A003F7F069080102C100002268880102C1000182600802034C9
:2004C8009180103410BFFFC4980F883A308C703A003FC706008000C4B8802D2600C000447F
:2004D000B005883AB8FFDD1E11C0004C0009883A000D883A003F6C069023883A003F64065D
:2004D8001C47C83A0100068401400044003FC8069080102C103FE9260023883A008020341F
:2004E0008980103410BFFFC4A80F883A308C703A003FAF0601C00804390FC83A89CE983A0A
:2004E800890AD83A380EC03A29CAB03A28C001CC1800042628C003CC01000104190001263E
:2004F000290B883A28C1002C1800042611C0004C01000044000D883A003F4B06280A91BA61
:2004F80011C0004C0009883A280CD27A003F4606008020348980103410BFFFC4B00F883ABD
:20050000308C703A003F9206DEFFF504DC0001152020D5FADD400615202AD7FADC80031500
:2005080004802034DF000915DD00051594BFFFC4DFC00A15DDC00815DD800715DCC004154B
:20051000DC40021584003FCC9124703AA829883AAF003FCC8000542600803FC480802F268B
:2005180091002034202490FA843FE0440023883A002F883A2804D5FA282CD7FA01002034DE
:20052000213FFFC410803FCC2166703AB1803FCC10004C2600C03FC410C047269900203421
:20052800202690FA10BFE0440007883A80A1883A010003C41C44B03AB56AF03A81C0004464
:2005300020806B36100490BA01000434210537041105883A108000171000683A00101670AB
:2005380000101530001015300010152C0010165400101654001016400010152C0010165483
:2005400000101640001016540010152C0010166000101660001016600010173C90003B1E8C
:200548000440020405C00084003FD206302B883A0080008418802626008000C41880AB2637
:20055000008000441880A21EA829883A0007883A0009883A18803FCC100695FAA0803FCCD5
:20055800100A97FA0080203410BFFFC42084703A10C4B03A1144B03ADFC00A17DF00091768
:20056000DDC00817DD800717DD400617DD000517DCC00417DC800317DC400217DC000117BB
:20056800DEC00B04F800283A90000D1E0440010405C00044003FAF069806C03A18C0008477
:20057000003FBA069800141E00C00044003FB706A829883A00FFFFC40009883A003FDD0660
:200578009009883AD94000150101998010FFFEC410801D8490E4983A00A1C83A0023883AEF
:20058000002F883AD9400017003F9A060440030405C000C4003F97069809883AD9800015DA
:200588000101998010FFFEC410801D8498E6983A0085C83A0007883AD9800017003F9B0646
:20059000010020340029883A213FFFC400FFFFC4003FC0069027883AB807883A003FB4062E
:200598009027883AE02B883AB807883A003FB0069004D43A9810D43A94BFFFCC993FFFCC6E
:2005A000910D383A20A7383A9225383A3006D43A1211383A94E5883A1C87883A1CC0022E44
:2005A800008000744091883A1804943A31BFFFCC1806D43A1185883A102691BA1A07883A1F
:2005B0001004D6BA180891BA9826C03A9884B03A1126B03A9882002C100004269804D07AD7
:2005B8009900004C3821883A1126B03A80C01FC400C0210E988001CC10000426988003CCEA
:2005C00001000104110001269927883A9882002C1000042600BE003410BFFFC480C02004F3
:2005C80098A6703A00803F8410FFA916980891BAA829883A2008D27A003F86069080102C11
:2005D000100008269880102C1000061E008020349900103410BFFFC4B029883A2088703A15
:2005D800003FBA06008020349100103410BFFFC42088703A003FB5060080004410C7C83AE0
:2005E000008006C410FF70160080080410C5C83A9884983A98C6D83A1004C03A1884B03AC7
:2005E80010C001CC1800042610C003CC01000104190001261105883A10C1002C1800062616
:2005F000A829883A00C000440009883A003F61063821883A003FC506100491BAA829883ACC
:2005F8000007883A1008D27A003F5A06008020349900103410BFFFC4A829883A2088703AEF
:20060000003F9206200AD5FA00C0203418FFFFC429403FCC00801F841906703A2008D7FAC3
:2006080011400E0E00802744114008160080254418C0203411400B0E28BFDA841884983AD9
:20061000200007260085C83AF800283A00A0003410BFFFC42085883AF800283A0005883AAE
:20061800F800283A008025841145C83A1884D83A003FF306DEFFFD04DFC00215DC4001153B
:20062000DC000015200035262021883A2022D7FA200036168009883A0101998000C02784FB
:200628001887C83A0100258420C0141620C9C83A8120983A0080203410BFFFC48809883A46
:2006300080A0703A18803FCC100695FA20803FCC100897FA0080203410BFFFC48084703A30
:2006380010C4B03A1104B03ADFC00217DC400117DC000017DEC00304F800283A010026449C
:2006400020C01C1620C9C83A8120983A013F0034213FFFC4814001CC8108703A2800042680
:20064800840003CC01400104814001262149883A2141002C2800052600C027C41887C83AB8
:2006500000BF003410BFFFC42088703A202091BA8809883A8020D27A003FDA060009883AFF
:200658000007883A0021883A003FD6060121C83A003FC80601002E4420C9C83A01400144A6
:200660008108983A288BC83A8160D83A2008C03A8120B03A003FDD0600BFFFD411000536CA
:2006680000803FC411000F36008008040007883A000005060080403410BFFFC411000C2E68
:200670000080020400C0060420C8D83A00C0047418C100041909883A20C0000310C5C83A6D
:20067800F800283A0080060400C00204003FF606008004041007883A003FF306DEFFFD0406
:200680002805883ADFC00015D9800115D9C0021521400217D9C00104100D883A0101A68079
:20068800DFC00017DEC00304F800283ADEFFFC04DFC00015D9400115D9800215D9C00315BC
:20069000008004741085B60410800017200B883AD9800104110002170103C600DFC0001767
:20069800DEC00404F800283ADEFFB804DFC04715DDC04515DD404315D9002C15282F883A0F
:2006A000302B883AD9C02D15DF004615DD804415DD004215DCC04115DC804015DC403F150B
:2006A800DC003E1501063C40108000171009883AD880341501083EC0D8803715D8802C1717
:2006B0001000022610800E171000F926B880030B10C8000C1800061EB900191700F7FFC405
:2006B8001088001420C6703AB880030DB8C0191510C0020C1800C126B8C004171800BF268B
:2006C0001080068C00C0028410C0C426D8C0040405000474D9001E04A5015084D8C01E159B
:2006C800D8002015D8001F15D8003315D8003615D80038151811883AD8003915D8003A1559
:2006D000D8002F15D9002815A880000710027B2600C00944A821883A10C0021E0000140654
:2006D80010C003268400004480800007103FFC1E8563C83A88000E26D8C02017D8801F17CE
:2006E000454000151C47883A10800044D8C0201544400115D8801F1500C001C41880A7169A
:2006E80042000204D9402F172C4B883AD9402F15808000071000A8268440004700BFFFC443
:2006F00085400044D80027850007883A000F883AD8802915D80031150025883A01401604CD
:2006F8000180024402800A8402401B04AD40004488BFF80428830436100490BA01000434BA
:20070000210704041105883A108000171000683A001027280010280800102808001027481A
:2007080000102808001028080010280800102808001028080010280800101EBC00102664CD
:200710000010280800101D8400101EE40010280800101F2400101F3000101F3000101F3016
:2007180000101F3000101F3000101F3000101F3000101F3000101F30001028080010280807
:200720000010280800102808001028080010280800102808001028080010280800102808B9
:2007280000101F64001020200010280800102020001028080010280800102808001028083E
:20073000001020C00010280800102808001020CC001028080010280800102808001028083D
:2007380000102808001025440010280800102808001025A4001028080010280800102808CF
:2007400000102808001028080010280800102808001028080010280800102808001027B4EE
:20074800001027540010202000102020001020200010276400102754001028080010280870
:200750000010277000102808001027800010265400101D9000102674001028080010268004
:2007580000102808001026DC0010280800102808001026ECD9003117D8802D150109C83AC6
:20076000D900311594800114AC400007003F970600800C04D9002D17D9402917D8802705D8
:2007680000801E04D8802745D800278520C0010424C00017002D883A9080009428029A163A
:2007700000BFDFC490A4703AD8C02D15948000949802871E0080047410814904D8803915EC
:2007780004401E04D88029170039883A1001E9260027883A002D883A00020506D9002C1747
:20078000B80B883A0103D3801005AC1EB880030B00C002841080068C10FF3C1EB880038FBD
:20078800103F3A16D9C02D17D9002C17A80D883AB80B883A0103C7C000001106D9002C17FF
:20079000D9801E04B80B883A010858001000081EDA000404003F5306D8802017100004266F
:20079800D9002C17D9801E04B80B883A01085800B880030B1080100C1005901ED8802F1771
:2007A000DFC04717DF004617DDC04517DD804417DD404317DD004217DCC04117DC804017FB
:2007A800DC403F17DC003E17DEC04804F800283AD9002C170105D0C0003F0406D8802D17B3
:2007B000D9002D1710800017D880311520800104D9003117203FA716D8802D15AC40000758
:2007B800003F4206AC400007AAC000448A87282688BFF4040009883A30867D365C40000784
:2007C000210002A45D400044A817883A2089883A88BFF40430BFF92E2005C916D900291515
:2007C800003F330694802014AC400007003F2F06A809883AD800311588BFF4040017883A41
:2007D000244000075AC002A4AD400044A809883A12D7883A88BFF40430BFF92EDAC031155A
:2007D800003F230618C03FCC18072B1E948004149080080C10037B26D9402D17288001172D
:2007E0002CC0001729400204D9402D15102D883A10044B16D9402917DF0027832803BC16D9
:2007E80000FFDFC49D84B03A90E4703A10017726B0038326DC402A15DC001E04B023883A2E
:2007F000402D883A9809883A880B883A01800284000F883A010B4F4010800C04843FFFC469
:2007F8009809883A880B883A8080000501800284000F883A010AF7C01027883A10C4B03AD3
:200800001823883A103FEF1ED8C02817DC402A17B011883A1C07C83AD8C02E150000590669
:2008080018C03FCC1806FA1E9080020C10048A26D8C02D17D9002D17D9402D1718C0001790
:200810002100011729400204D8C03615D9003815D9402D15D9003617D9403817DA003D1502
:2008180004000044010810C0DA003D1714041F1ED9003617D9403817000D883A000F883AEE
:20082000010CD240DA003D171005BE16DF002783008011C41445330E0400047484014104C4
:2008280000C000C400BFDFC4D8C02A1590A4703AD8C02E15D8002915D800321500003706C8
:2008300094800214AC400007003EC80618C03FCC1806DB1E948004149080080C1002D82625
:20083800D9402D17D8C02917D8002785288002042CC000172D80011718048F16013FDFC4CD
:200840009D86B03AD8802D159124703A1802D91ED8C029170039883A1805C3260027883ABF
:20084800002D883ADC001E049806D0FAB008977AB02CD0FA9CC001CC98800C04843FFFC4F5
:2008500020E6B03A808000059D86B03A183FF61E90C0004C18013B2610803FCC1080201C9E
:2008580010BFE00400C00C0410C1362680FFFFC5D8C0281780BFFFC41021883A1887C83A20
:20086000D8C02E15D8802E17D90029171100010E2005883AD8802A15D8003215E7003FCC38
:20086800E700201CE73FE004E0000326D8C02A1718C00044D8C02A1590C0008CD8C02B15BA
:2008700018000326D8C02A1718C00084D8C02A1590C0210CD8C030151801A31ED9003117C6
:20087800D8C02A1720E7C83A04C19F0E02400404D8C02017D8801F174CC50D0E0140047480
:2008800029415484DC403B15D94035159823883A482D883A9027883A070001C48025883AE7
:20088800DC002C17000003068C7FFC0442000204B440130E0100047418C004041080004493
:20089000210154844100001545800115D8C02015D8801F15E0BFF40ED9801E04B80B883A23
:200898008009883A01085800103F011E8C7FFC04D8C02017D8801F17DA000404B47FED16A6
:2008A0009021883A9825883A8827883ADC403B17D940351798C7883A108000444140001577
:2008A80044C00115D8C02015D8801F15010001C42082A316DF00278742000204E0000C26B5
:2008B000D8801F17D900278418C0004410800044410000150100004441000115D8C0201567
:2008B800D8801F15010001C420823C1642000204D8802B1710000C26D8801F17D900270424
:2008C00018C0008410800044410000150100008441000115D8C02015D8801F15010001C497
:2008C8002082361642000204D90030170080200420819926D9402917D8802E1728ADC83AE9
:2008D0000580310E07000404D8801F17E584140E0140047429415084DC402915D9402B1572
:2008D800B023883A04C001C4A82D883A902B883A8025883ADC002C17000003068C7FFC0434
:2008E00042000204E440110E18C00404108000444500001547000115D8C02015D8801F15A9
:2008E80098BFF60ED9801E04B80B883A8009883A01085800103EAE1E8C7FFC04D8C02017F5
:2008F000D8801F17DA000404E47FEF169021883AA825883AB02B883A882D883ADC4029179E
:2008F800D9002B171D87883A108000444100001545800115D8C02015D8801F15010001C43B
:200900002081EE16420002049080400C1001181ED9402E17D8801F17440000151947883AE0
:200908001080004441400115D8C02015D8801F15010001C42081D316420002049480010C52
:2009100090003226D9403117D8802A1728A1C83A04002E0E04400404D8801F178C04A20EC0
:200918000140047429415484D9403515048001C4DCC02C1700000306843FFC044200020425
:200920008C00130E0100047418C0040410800044210154844100001544400115D8C0201526
:20092800D8801F1590BFF40ED9801E04B80B883A9809883A01085800103E6D1E843FFC0472
:20093000D8C02017D8801F17DA0004048C3FED16D94035171C07883A1080004441400015E6
:2009380044000115D8C02015D8801F15010001C42080060ED9002C17D9801E04B80B883A56
:2009400001085800103E5A1ED8C02017D8803117D9002A171100010E2005883AD9402F1781
:20094800288B883AD9402F1518019E1EA8800007D8001F15DA000404103D851EA821883A50
:20095000003D9B0618C03FCC1805C11E948004149080080C10020C26D8802D17D900291781
:20095800D800278510C0020414C000171580011720040F16013FDFC49D84B03AD8C02D157C
:200960009124703A0039883A103E891ED90029172002C11ED8002915D8002E15DC001E04DF
:20096800003EF80618C03FCC18059D1E0140047429414404D94039159080080C10005226FA
:20097000D8802D1714C000171580011710800204D8802D159080004C100190269D84B03AD5
:2009780010036926D8C0291700800C04D8802705DC402745D80027859080009418045D1692
:2009800000BFDFC490A4703A948000940039883AD9003917DC001E04988003CCB006973ADF
:200988002085883A9826D13A10800003B02CD13A843FFFC41CE6B03A808000059D84B03A23
:20099000103FF51ED8C028171C07C83AD8C02E15003ECC0618C03FCC183E9F26D9C02785BB
:20099800003E9D0600C0004401C00AC4AC400007003D5E0694800814AC400007003D5B0676
:2009A000D8C02D17D80027851C0000171CC0010480041926D90029172003D016200D883AEF
:2009A800000B883A8009883ADA003D150106DBC0DA003D17100454261405C83AD8802E15D7
:2009B0001003CC16DF002783D8802A15DCC02D15D8002915D8003215003EB00618C03FCC28
:2009B800183F9B26D9C02785003F990618C03FCC1805551E0140047429414904D94039159A
:2009C0009080080C103FAE1E9080040C1002DE26D8C02D17002D883A1CC0001718C0010407
:2009C800D8C02D15003FAB0638803FCC1080201C10BFE0041002D21E00C0004401C0080430
:2009D000AC400007003D290694800054AC400007003D260618C03FCC183E0526D9C027853B
:2009D800003E030694801014AC400007003D1F06AC4000078A43872694800414003D1B0634
:2009E00018C03FCC1805341E9080080C1002CD26D9402D17D9002F17288000172007D7FA49
:2009E80029400104D9402D151100001510C00115003CE506D8C02D17D9002D17D800278576
:2009F000188000172100010400C00044D8C02A15D8801405D9002D15D8C02E15D8002915BA
:2009F800D8003215DC0014040039883A003E720601000474210149040039883AD900391511
:200A000004401E04003F820618C03FCC1805061E883D912600C00044D8C02A15DC401405F9
:200A0800D8002785003FEC060140047429414904D9403915D8C02D151025883A04401E040B
:200A10009D84B03A1000FC1E0039883A0080008410803FCC00C0004410C20F2600C00084A8
:200A180010FD6326003E2D06D8C02017003E93060080194414407E0ED9003617D9403817C6
:200A2000000D883A000F883AD8C03C15DA003D15010CBC00D8C03C17DA003D171000F71EFA
:200A2800D8801F17010004742101500418C00044108000444100001501000044410001154F
:200A3000D8C02015D8801F15010001C42082B81642000204D8802617D9403317114002166E
:200A38009080004C103ED526D8803717D9003417D94037171887883AD8801F174100001583
:200A40004140011510800044D8C02015D8801F15010001C42083291642000204D880331740
:200A4800143FFFC4043EC50E04400404D8801F178C00880E0140047429415084D9402B1517
:200A5000058001C4DCC02C170000030642000204843FFC048C00820E18C004041080004479
:200A58004500001544400115D8C02015D8801F15B0BFF60ED9801E04B80B883A9809883A5B
:200A600001085800103D3A1ED8C02017D8801F17DA000404003FEE06D9403117D8802A1704
:200A680028ADC83A05BE630E07000404D8801F17E5838F0E0140047429415084DC40301569
:200A7000D9402B15B023883A04C001C4A82D883A902B883A8025883ADC002C17000003064C
:200A78008C7FFC0442000204E440110E18C00404108000444500001547000115D8C0201590
:200A8000D8801F1598BFF60ED9801E04B80B883A8009883A01085800103D151E8C7FFC0438
:200A8800D8C02017D8801F17DA000404E47FEF169021883AA825883AB02B883A882D883A91
:200A9000DC403017D9002B171D87883A108000444100001545800115D8C02015D8801F1504
:200A9800010001C420818E1642000204003E3106D94033170080004418C000441141530E80
:200AA000DC401F1700800044408001158C40004444000015D8C02015DC401F15008001C47F
:200AA80014416B1642000204D8803717D90034178C40004410C7883A408001154100001571
:200AB000D8C02015DC401F15008001C41441691645800204D9003617D9403817000D883AC8
:200AB800000F883AD8C03C15010CBC00D8C03C171000BC26D9403317840000448C40004483
:200AC00028BFFFC41887883AB0800115B4000015D8C02015DC401F15008001C414414316EC
:200AC800B5800204D9003A17DF0022C48C40004420C7883AB7000015B1000115D8C02015CB
:200AD000DC401F15008001C414400E16B2000204003E3A060100047421015084D9002B153B
:200AD800D9002B171C07883A440001154100001510800044D8C02015D8801F15010001C45B
:200AE00020BE2D0ED9002C17D9801E04B80B883A01085800103CB61ED8C02017DA0004048F
:200AE800003E2606D9002C17D9801E04B80B883A01085800103E5D26003CAD06D9002C172B
:200AF000D9801E04B80B883A01085800103CA81ED8C02017DA000404003E0B06D9002C1757
:200AF800D9801E04B80B883A01085800103CA01ED8C02017DA000404003DBD06D9002C17A6
:200B0000D9801E04B80B883A01085800103C981ED8C02017DA000404003DC306D880291723
:200B0800D8002785103F061600FFDFC49D84B03A90E4703A103C6B260039883A003E740683
:200B10009080040C1001B326D9002D17D9402917D80027852080010424C00017002D883A32
:200B18002801B51600FFDFC4D8802D1590E4703A983D27260039883A003D2A06DC4026178C
:200B20000441D30EDC403217D88033171440010E1023883A04400A0ED8801F171C47883A21
:200B2800440000151080004444400115D8C02015D8801F15010001C4208265164200020462
:200B300088026116D90032172463C83A04407B0E05800404D8801F17B4419D0E01000474F8
:200B380021015084D9002B15070001C4DCC02C1700000306420002048C7FFC04B441970EED
:200B400018C00404108000444500001545800115D8C02015D8801F15E0BFF60ED9801E0435
:200B4800B80B883A9809883A01085800103C501ED8C02017D8801F17DA000404003FEE0618
:200B5000D9002C17D9801E04B80B883A01085800103C471ED8C02017DF002787DA00040419
:200B5800003D56069080040C10016126D8802D1714C0001710800104D8802D15982DD7FAE0
:200B6000B005883A003C82069080040C10003526D9402D17D8C02917D80027852880010449
:200B68002CC00017002D883A1800371600FFDFC4D8802D1590E4703A0039883A983DF326D3
:200B70000080024414FC7B36D8C02817DC001DC49CC00C041C07C83ADCC01DC5D8C02E1560
:200B7800003CE806D8803317143FFFC4043F4D0E07000404E400810E014004742941508464
:200B8000D9402B1501C001C4DCC02C1700000306B5800204843FFC04E4007B0E18C0040443
:200B88008C400044B5000015B7000115D8C02015DC401F153C7FF60ED9801E04B80B883ACA
:200B90009809883AD9C03C1501085800D9C03C17103C071ED8C02017DC401F17DD800404B4
:200B9800003FEC069080100CD800278510010E26D9002D17D9402917002D883A208001040D
:200BA00024C0000B283FC90ED8802D150039883A9D84B03A103C461E00800044003E6C0644
:200BA800D9002C17D9801E04B80B883A01085800103BEF1ED8C02017DA000404D900321785
:200BB000D8802617D94033178123883A114002169100004C20000D26D9003717D9403417A3
:200BB8001907883AD9001F1741400015D940371721000044D8C0201541400115D9001F1559
:200BC000014001C42901E81642000204D90033178121883A2085C83A8461C83A1400010E67
:200BC8001021883A04000A0ED9001F171C07883A444000152100004444000115D8C02015E5
:200BD000D9001F15014001C42901FB16420002048001F7161421C83A043D380E04400404D7
:200BD800D8801F178C3EFB0E0140047429415084D9402B15058001C4DCC02C17000003061A
:200BE00042000204843FFC048C3EF50E18C00404108000444500001544400115D8C02015A8
:200BE800D8801F15B0BFF60ED9801E04B80B883A9809883A01085800103BAD1ED8C0201745
:200BF000D8801F17DA000404003FEE069088703A203EAB1EDC401F174080011544000015D8
:200BF8008C400044D8C02015DC401F15008001C414400E1645800204003ECA0601000474A1
:200C000021015084D9002B15D8802B171C07883A8C400044B0800015B4000115D8C020155A
:200C0800DC401F15008001C4147EBD0ED9002C17D9801E04B80B883A01085800103B8C1E68
:200C1000D8C02017DC401F17DD800404003EB506D9002C17D9801E04B80B883A01085800C8
:200C1800103B831ED8C02017DC401F17DA000404003E8D06D9002C17D9801E04B80B883AE0
:200C200001085800103B7A1ED8C02017DC401F17DD800404003E8F060027883A003F4A069F
:200C2800D9002C17D9801E04B80B883A01085800103B6F1ED8C02017DA000404003C9D06C7
:200C300004E7C83A9804C03A05ADC83AB0ADC83AD880291707000B44DF00278510017B16F3
:200C380000BFDFC490A4703A003BB106D9003617D9403817DA003D15010810C0DA003D17A9
:200C40001000F026D900291705BFF7C400BFFFC48DAC703A20820026008011C4B081F72606
:200C4800D900381790C04014D8C02B1520021516DCC03817D8002A05008019848881F92664
:200C50000080118488821C2600801144B081EF26D8C02917D8802104D8800315D9403617DD
:200C5800D8802504D9002C17D8800215D8802604D8C00015D880011501C00084980D883A27
:200C6000D8C03C15DA003D15010408C01021883A008019C4D8C03C17DA003D178881712689
:200C6800008011C48882922680F9883AD9003617000D883A000F883A980B883ADA003D15C3
:200C7000010CBC00DA003D1710018D26D88021171700062E01000C0410C00044D8C02115DB
:200C780011000005D8802117173FFB361405C83AD8803315008011C4B08176260080194475
:200C80001442810ED8C0261700801984D8C032158881FE26D8C03217D90033171901DD1660
:200C88009480004C90022B1E1805883A18028016D8C03217044019C4D8C02E15DF002A0795
:200C9000E001531EDF002783D8802A15DC802B17D8002915003BD106D8802D17D8C02D1794
:200C9800D9002D171080001718C0011721000204D8803615D8C03815D9002D15003B750608
:200CA000AC400007003A59069080100C1000A826D9002D17002D883A24C0000B210001047D
:200CA800D9002D15003CCB06D8C02D17D9002917002D883A188001041CC00017203EBB0E69
:200CB000003EF1069080040C1000921E9480100C90013926D9002D17D9402F1720800017BC
:200CB80021000104D9002D151140000D003A16069080100C10008026D8C02D171CC0000F7E
:200CC00018C00104D8C02D15982DD7FAB005883A003B1F069080100CD800278510008A1E88
:200CC800D9402D17D8C02917002D883A288001042CC00017183E4B0E9D86B03AD8802D15E2
:200CD000183E4C1E0039883A0005883A003D40060140047429415084D9402B15D9402B1754
:200CD8001C47883A108000444140001544400115D8C02015D8801F15010001C420BEC816F8
:200CE00042000204003ECD06D9002917D8002785203D2D1600BFDFC490A4703A003A91064D
:200CE8000100047421015084D9002B15003C0C06D9002C17D9801E04B80B883A0108580099
:200CF000103AAB1ED8C02017DA000404003D4106D8801F17014004740100004418C00044F4
:200CF80010800044294150044100011541400015D8C02015D8801F15010001C420805C162C
:200D0000420002048800041ED88033171000021E9080004C103C0926D9003717D8801F1783
:200D0800D940341720C7883A108000444100011541400015D8C02015D8801F15010001C4DE
:200D100020812116420002040463C83A0440730E05800404B440860E014004742941508469
:200D1800D9402B15070001C4DCC02C1700000306420002048C7FFC04B440800E18C00404F9
:200D2000108000444500001545800115D8C02015D8801F15E0BFF60ED9801E04B80B883AAE
:200D28009809883A01085800103A711ED8C02017D8801F17DA000404003FEE0600BFFFC41A
:200D3000003A6F06008011C41440B816040004748401420400C000C400BFDFC4D8C02A1579
:200D380090A4703ADF002783D8C02E15D8002915D8003215003B2906D9002D1724C00017A2
:200D400021000104D9002D15982DD7FAB005883A003A9F06D9402D17D8C02F17288000176C
:200D480029400104D9402D1510C0001500398606D9402D17002D883A2CC00017294001045B
:200D5000D9402D15003C2306D8C02D17D9002917002D883A188001041CC0000B203DC10E2F
:200D5800003F75060400047484014004003ACC06D9002C17D9801E04B80B883A01085800F3
:200D6000103A3B1EDC402617D8C02017DA000404003F9C06AC40004394800814AD40004455
:200D68008C403FCC8C40201C8C7FE00400398F06D8C02D150039883A003E3506D9002C1765
:200D7000D9801E04B80B883A01085800103A281ED8C02017DA000404003CD0068009883A64
:200D7800DA003D1501083EC0D8802E15DA003D17103C340E0005883A003C3206D9002C177A
:200D8000D9801E04B80B883A01085800103A181ED8C02017D8801F17DA000404D9403317D0
:200D8800108000444400001528C7883A003B7D060100047421015484D9003515003B1406C4
:200D9000013FFFC4003A35060023883A003D9D06D9002C17D9801E04B80B883A0108580089
:200D9800103A031ED8C02017DA000404003D94060100047421015084D9002B15D9002B17A5
:200DA0001C47883A108000444100001544400115D8C02015D8801F15010001C420BFD7165F
:200DA80042000204003FDD06D9002C17D9801E04B80B883A010858001039ED1ED88026175B
:200DB000D8C02017DA000404003E10060080004410803FCC00C0004410FA352600C0008412
:200DB80010FBCB26003A8F060100047421015484D9003515003B7606D880291700C0018426
:200DC0001880012E1805883AD8802E151000EF1604000474D8802A15DCC02D15D8002915B6
:200DC800D800321584014E040039883A003AA2060021883A003E0706D9002C17D9801E0473
:200DD000B80B883A010858001039C91ED8802617D9403317D8C02017DA0004042885C83A95
:200DD800003DFB069080004C103E8F1ED8802117003E9E061025883A0039883A00800084FE
:200DE000003FD30607000B44DF002785003A400600C00B44D8C02785D8802A15DC802B17F2
:200DE800D800291507000B44003A80060400047484014304003F4706D8C02D17D9002F17F0
:200DF0001880001718C00104D8C02D15110000150038DD06DD80261700BFFF44B0801C163E
:200DF800D94029172D801A16DD803215003E89060100047421015084D9002B15003C9106D9
:200E0000E005883A003E7906D9402917DF002783DCC02D15D9402A15D9402E15D8002915E4
:200E0800D8003215003A5D069080004C0039883A1000042600800C04DC001DC4D8801DC5F6
:200E1000003B8006D8002E15DC001E04003A4D068C7FFF84B5BFFFC4DD802615DC4022C5FB
:200E1800B000BF1600800AC4D8802305008002441580701600800C04B5800C04D8802345F1
:200E2000DD802385D88023C4DF0022C4D8C033171739C83AD9003317E0C7883ADF003A15BB
:200E2800D8C02E15008000441100B30ED8C02E1718C00044D8C02E151805883A1800AC16AC
:200E3000D8003215003E5D06D9002C17D9801E04B80B883A010858001039651EDC40261740
:200E3800D8C02017D8801F17DA000404003ED606582B883AD80029150038BD06D880291753
:200E4000103E071EDC002915003E0506D900291720C00044003E0F0601400184D94029150F
:200E4800003DFF06D8802104D8800315D8802504D8800215D8802604D8800115D8802917E3
:200E5000D9403617D9002C17D880001501C000C4980D883ADA003D15010408C0D8C02917D6
:200E5800DA003D171021883A10F9883A8100000700800C0420805E26D8C02617E0F9883AE2
:200E6000003E0A0600C00B4424E0003CD8C02A05003DE906D8C0321700C07A0E00800044F5
:200E6800D90033171105883AD8802E1510004E16044019C4003E2106D9002917D880210444
:200E7000D8800315D9000015D8802504D9403617D9002C17D8800215D8802604D8800115A2
:200E780001C000C4980D883ADA003D15010408C0D8C02917DA003D171021883A0080118467
:200E800080F9883A88BFD926003DE806D900291700C04D0E2000441E9480004C9000421EA0
:200E88001805883A18007016D8C03217D8C02E15003E0206DF0022C4DC0029154027883AC3
:200E9000E021883AB009883A014002840100E98010800C04843FFFC4B009883A014002846B
:200E9800808000050100E140102D883A0080024415BFF4169811883AB0800C048027883A5C
:200EA000997FFFC498BFFFC5DC0029172F006A2ED9C023843CCFC83AD9002344E1CF883A5A
:200EA8000000010628800003208000052100004429400044393FFB1ED880230414C5C83AD6
:200EB000D8C023441885883A003F70060005883A003F0F06D8C0321718C00044D8C02E151C
:200EB8001805883A183FB20E0005883A003FB006D9003617000D883A000F883A980B883A3D
:200EC000D8C03C15DA003D15010CBC00D8C03C17DA003D17103F98260080004410C7C83A71
:200EC800D8C02615003F9506D9002917D8C03217208000441885883AD8802E15103DBF0E6B
:200ED0000005883A003DBD062000211E9480004C90001F1E00800044D8802E15003DB70656
:200ED80000800B4405ADC83AD8802305003F3F060005883A003F520690A4703A903F4E26F4
:200EE000003F4A060080008410C5C83A003F8406D8802D17D9002D17AC4000431080001730
:200EE800582B883AD880291520800104D9002917D8802D15203E7A0E8C403FCC00BFFFC478
:200EF0008C40201CD88029158C7FE00400380706D8C0291718C00084D8C02E151805883A22
:200EF800183D960E003FD6060005883A003F8E069080004C103F811ED88021171405C83A37
:200F0000D8803315B47EF326DD802617003F1106D9C0278500390406D9C027850038D30618
:200F0800D9C02785003A6106D9C02785003AF8060005883A003D7E06D8802344003F1306C7
:200F1000D9C0278500392306D9C02785003AA906D9C02785003A3D06D9C02785003ACA06DB
:200F1800008004741085B604300F883A280D883A200B883A110000170101A6812880030B86
:200F20002AC019172A80038B2A4007172A000917DEFEE20400C10004DC011A1510BFFF4CE0
:200F28002821883AD8CB883ADC811C15DC411B15DFC11D152025883AD881030DDAC1191553
:200F3000DA81038DDA410715DA010915DEC10015DEC10415D8C10215D8C10515D8010615C3
:200F38000101A6801023883A10000416D94100049009883A0105930010000D1ED881030B9E
:200F40001080100C100003268080030B108010148080030D8805883ADFC11D17DC811C1727
:200F4800DC411B17DC011A17DEC11E04F800283A047FFFC4003FF10600800474DEFFFD04BF
:200F50001085B604DC4001152023883A11000017DC000015DFC002152821883A20000226D9
:200F580020800E17100031268080030B10C0020C1009883A18000F2680C00417180015268B
:200F60001100004C20001C1E1080008C1000291E808005178080021518001C260005883AF3
:200F6800DFC00217DC400117DC000017DEC00304F800283A2080040C10002E262080010CCA
:200F700010001E1E80C00417208002148080030D183FEB1E1100A00C01408004217FE82664
:200F7800800B883A8809883A01063F408080030B80C00417003FE2068080051780000215F0
:200F80000085C83A80800615183FE41E80C0030B0005883A1900200C203FE12618C010149A
:200F880080C0030D00BFFFC4003FDD060105D0C0003FCD060005883A003FD60681400C17E7
:200F90002800062680801004288003268809883A0105E8008100030B80000C1580C004173C
:200F980000BFF6C41108703A8000011580C00015003FD50600800244888000152080101451
:200FA0008080030D00BFFFC4003FC506DEFFF704DC800215208004172C800417DFC008150C
:200FA800DDC00715DD800615DD400515DD000415DCC00315DC400115DC00001514807116D9
:200FB00094BFFFC494AD883AB5AD883A2C4005048DA9883A25400504282F883AADAD883AD4
:200FB800A14000172021883AB1000017294000440100F0C01027883A10002C26A813883A20
:200FC000880B883A0009883A000D883A2A00001749C000172940010440BFFFCC14C5383A3E
:200FC8004010D43A38FFFFCC1105883A1008D43A44D1383A198D883A10FFFFCC30C7C83AE9
:200FD000380ED43A4105883A180DD43A113FFFCC390FC83A398D883A300E943A18FFFFCC97
:200FD8001008D43A38CEB03A49C00015300DD43A4A400104A17FE52EB080001710000B1E38
:200FE000B0BFFF04A880082EB0FFFF17180003260000050610C000171800031E10BFFF041E
:200FE80094BFFFC4A8BFFB3684800415B80B883A8009883A01079D80100026169CC000443D
:200FF000A805883A000B883A11000017898000171080010420FFFFCC194B883A30FFFFCCBE
:200FF80028C7C83A300CD43A2008D43A180BD43A18FFFFCC2189C83A2149883A200C943A83
:201000008C400104200BD43A30C6B03A10FFFF15A47FED2E9485883A1085883AA887883A62
:201008001880001710000B1E18BFFF04A880082E18FFFF17180003260000050610C0001748
:201010001800031E10BFFF0494BFFFC4A8BFFB36848004159805883ADFC00817DDC0071712
:20101800DD800617DD400517DD000417DCC00317DC800217DC400117DC000017DEC0090410
:20102000F800283A0005883A003FF30620801017DEFFDE04DF002015DCC01B15DC801A1566
:20102800DC401915DC001815DFC02115DDC01F15DD801E15DD401D15DD001C15D9C0031511
:201030002039883A3023883A2825883ADC0024173027883A100008262180111700C0004426
:20103800100B883A1986983A1180011510C0021501071B80E000101588002E1680000015B3
:20104000889FFC2C00DFFC3410C01C26000D883A000F883A9009883A980B883A010CBC00F7
:2010480010002B1ED9C023170080004438800015D880251710019E26D8C025170080047496
:20105000108150441880001510BFFFC4DFC02117DF002017DDC01F17DD801E17DD401D1779
:20105800DD001C17DCC01B17DC801A17DC401917DC001817DEC02204F800283AD8C02317C6
:201060000089C3C418800015900177260080047410815C04D9002517203FEC2610C000C77F
:201068001801781E10C000C4D980251730C00015003FE60604E000349CFFFFC40080004426
:201070008CE6703A808000159823883A003FCC06D8800204D8800015D9C00104900B883ADB
:20107800980D883AE009883A8820D53A0107DA40D88009158001651EDD800217DC00011789
:2010800000800804B421883A80C10C8410C2D10E008010048101048410C7C83A9108D83A89
:2010880088E2983A2448B03A010DF880017F8434018000441009883A194B883A843FFFC4AC
:20109000D9801115000D883A01CFFE34010D53000198DBF401CFF4F43190D84439E1E9C4CB
:201098001009883A180B883A010CE18001A2D87401CFF1F431B22CC439E28A04180B883A05
:2010A0001009883A010BA2C08009883A1029883A1823883A010DEAC0019427F401CFF4F484
:2010A800319E7EC439D104C41009883A180B883A010CE180100D883A180F883AA009883AE4
:2010B000880B883A010BA2C01009883A180B883A1029883A1823883A010DE2C0000D883A26
:2010B800000F883AA009883A880B883AD8800515010CD24010028716D8C00517008005848A
:2010C00010C27536180490FA00C0047418C178041885883A1100001711400117900D883A11
:2010C800980F883A010CC48000828D0ED9000517D8000E15213FFFC4D9000515B42DC83A48
:2010D000B5BFFFC4B0026F16D8000815D9C0051738026416B1ED883AD9C00D15D8000A1522
:2010D800D98003170080024411811436008001441184E10E31BFFF04D98003150023883A51
:2010E000D9800317008000C4308367261183410ED9C003170080010438827C2600800144BD
:2010E8003884C41E00800044D8800B15D8C00517D90022171907883A19800044D8C00C15D0
:2010F000D98006150183A40ED98006173021883AE0001115008005C41184C92E00C00044CE
:2010F800008001041085883A11000504180B883A18C00044313FFB2EE1401115E009883A56
:2011000001071100D8800715E0801015008003841400F7368800F626D9C0051701C39A0EB0
:20110800388003CC100490FA382BD13A00C0047418C178041885883AA8C0040C1240001767
:2011100012000117180379260080047410816E041180081711C009179009883A980B883A7F
:20111800DA001715DA401615010C2D80DA001717DA401617AD4003CC040000C41023883AEA
:201120001829883AA800112605C00474BDC16E044805883A4007883AA980004C1009883A38
:20112800A82BD07A180B883A30000426B9800017B9C0011784000044010CE180BDC00204B1
:20113000A83FF51E1013883A1811883A480D883A400F883A8809883AA00B883A010C2D8033
:20113800D8800F15D8C01015D8C00E1718000626D9000F17D9401017000D883A01CFFC344F
:20114000010CD24010040B168009883A010DEAC0D9800F17D9C010171009883A180B883A39
:20114800010CE180000D883A01D007341009883A180B883A010BA2C01021883AD8800617A8
:20115000047F30341C63883A10031826D8C00517DB000617D8C01315D9000B1720038F26C7
:2011580060BFFFC4100490FA00C0047418C178041885883A1180001711C00117D880071704
:201160000009883A014FF834DB00161515C00044010C2D80800D883A880F883A1009883ACC
:20116800180B883A010D5300D9401017D9000F17102B883AD8C01215010DE2C01009883A9B
:201170001029883A010DEAC0D9000F17D9401017100D883A180F883A010D53001823883A47
:20117800D8C00717D9401217A2000C041021883A1A000005800D883A880F883AA809883A80
:201180004029883A010CC48000841D16800D883A880F883A0009883A014FFC34010D5300C8
:20118800D9401217100D883A180F883AA809883A010CC480DB00161700840E160080004405
:2011900013006B0ED9000717DD800F15DCC010152319883ADCC01217602D883ADC801215E5
:20119800B825883A00000906010D5300A80D883A980F883A1009883A180B883A010CD24069
:2011A0001003E816B825883ABD83E926A809883A980B883A000D883A01D00934010CE1800D
:2011A800000D883A01D009348009883A880B883A102B883A1827883A010CE180180B883A59
:2011B0001009883A1821883A1023883A010DE2C01009883A1029883A010DEAC08809883AC3
:2011B800800B883A100D883A180F883A010D5300A5000C04A80D883A980F883A1009883A31
:2011C000180B883A950000051021883A1823883A010CD240BDC00044800D883A880F883A18
:2011C8000009883A014FFC34103FCF0ED8C01317D8C00515D9400917E009883A01071B8095
:2011D000D9000517D9802317D9C02517B800000520800044308000153802AA263DC0001520
:2011D800D8800717003E79060080043410BFFFC488A2703A883E851E008004741081590457
:2011E000003E840610C00204003E870601400434297FFFC4994A703A9009883A843F0044B3
:2011E800294FFC34DD800217D8001115003EA5060080047410815004003E6406E000111557
:2011F000000B883AE009883A0107110001BFFFC401C00044D8800715D9800C15E080101553
:2011F800D8000315D9C00B15D9800615D8002215D880011710008916D900051700C0038450
:2012000019008616200490FA00C00474D980221718C178041885883A140000171440011756
:2012080030016316800D883A880F883A9009883A980B883A010C2D80180B883A1009883A3A
:20121000010DE2C01009883A102B883A010DEAC0800D883A880F883A1009883A180B883A16
:20121800010CE180100D883A180F883A9009883A980B883A010D5300D9C007171009883ACD
:20122000A8800C04388000053DC00044D9C0061701800044180B883A2005883A398038261A
:20122800000D883A01D00934010CE180000D883A000F883A1009883A180B883A1025883A04
:201230001827883A010CBC00103F9A26D9C00617D8C00717B829883A38BFFFC418AD883A75
:2012380000000A06010CE180000D883A000F883A1009883A180B883A1025883A1827883AC0
:20124000B829883A010CBC00103F8A26800D883A880F883A9009883A980B883A010C2D8001
:20124800180B883A1009883A010DE2C01009883A102B883A010DEAC0800D883A880F883ADE
:201250001009883A180B883A010CE180100D883A180F883A9009883A980B883A010D530067
:20125800AA000C04A2000005000D883A01D009341009883A180B883AA5C00044B53FD91EE4
:20126000100D883A180F883A1009883A180B883A010BA2C0100D883A180F883A8009883A65
:20126800880B883A1027883A1825883A010CD24010000816980D883A900F883A8009883AB9
:20127000880B883A010CBC00103F5A1EAD40004CA83F5826BD3FFFC3B8BFFFC41007883A0A
:2012780001400E44D98007170000050618FFFFC4118247261D000003102F883A10BFFFC4B4
:20128000A1003FCC2100201C213FE004217FF726A200004412000005003F4606D9000B17C1
:201288002000C826D980031700C000441980F90ED8800617D8C00A17157FFFC41D41F31635
:201290001D6BC83AD9C006173802AA16DD000817D8800617D8C0081701400044E009883AAC
:201298001887883AD8C00815B0AD883A010751C01023883AA00008260580070EA005883A24
:2012A000B500B916D9000817A0A9C83AB0ADC83A2089C83AD9000815D9800A170181810EDC
:2012A800D9C00B173800B326A800B226880B883AA80D883AE009883A01077500D98009176D
:2012B000100B883AE009883A1023883A010755801021883AD8800A17D9400917E009883A74
:2012B8001545C83AD8800A1501071B80D8C00A1718009F1E05C00044E009883AB80B883AD9
:2012C000010751C0D9000D17102B883A2000CE26200D883A100B883AE009883A01077500F3
:2012C800D9800317102B883AB981810E0027883AA880041705C00804108001041085883AE4
:2012D0001085883AA885883A1100001701074040B885C83A1585883A108007CC1000B32621
:2012D80000C008041887C83A0100010420C2CD0E00C007041885C83AD8C00817A0A9883A9A
:2012E000B0AD883A1887883AD8C00815D98008170180040E800B883AE009883A0107890025
:2012E8001021883A0580050EA80B883AB00D883AE009883A01078900102B883AD9C00E1770
:2012F0003801211ED98006170181380ED8C00B171800AB1EDC800717DCC006179029883ADF
:2012F8000000020601071E001021883AA80B883A8009883A0103E8C010800C049080000594
:20130000948000449507C83A000F883A01800284800B883AE009883A1CFFF2161011883A01
:20130800D88006170082370ED90007170025883A20AF883A01800044800B883AE009883A5D
:20131000DA00171501078900A80B883A1009883AD880091501079D80DA0017170081800E24
:20131800B93FFFC3B8BFFFC41007883A01800E44D9C007170000050618FFFFC411C123265E
:2013200019000003102F883A10BFFFC421403FCC2940201C297FE00429BFF72621000044F7
:2013280011000005A80B883AE009883A01071B80883EA0269000042694400326900B883A2C
:20133000E009883A01071B80880B883AE009883A01071B80003E970601800044D9800E1590
:20133800003D9606D8800817D8C00517D8000D1510C5C83A00C9C83AD8800815D9000A1588
:20134000003D970605ADC83ADD800815002D883A003D8E06D9000517010DEAC0100D883A39
:20134800180F883AA009883A880B883A010CBC00103D7126D9C0051739FFFFC4D9C00515CC
:20135000003D6D06DD400A17DD0008170023883A003F480610E3C83A9448983A003D320609
:20135800D8000E15003D7506B005883A003F4506DC000915D9800A17D9400917E009883A69
:20136000010775001021883A003F5A0601C00044D9C00B15D88022170081280E100D883A79
:201368001021883AD8800C15D8800615003D8806D880061700BE9B1610010F1E880B883A44
:20137000000D883A01D005348009883A010CE180900D883A980F883A1009883A180B883A43
:20137800010CC480002B883A0023883A1000BF16D9802217DDC00717018C303AD980051596
:20138000A80B883AE009883A01071B80883E4926003FAD06D9C011173801BC2610810CC426
:20138800DD400A17DD000817003F0A0600800704D9000817A0A9883AB0AD883A2089883AA4
:20139000D9000815003F5106D8C00317B8C1FC0E0027883AB805883A003F3E06880B883A3C
:20139800E009883A000F883A0180028401071E00D9000C171023883A0102040ED900061592
:2013A0000500050E880B883AA00D883AE009883A010789001023883A9801241E8829883AD2
:2013A800D9000617DCC007179480004C20BFFFC49885883AD8800415DC800615A80B883A37
:2013B0008009883A0103E8C0880B883A8009883A102F883A01079D80A80B883AA00D883A7C
:2013B800E009883A102D883A0107A3801007883A10800317BC800C04180B883A10004E1E10
:2013C0008009883AD8C0161501079D80D8C01617E009883AD8801615180B883A01071B805F
:2013C800D88016171000041ED98003173000021ED8C0061718003726B0002016B000041EA9
:2013D000D90003172000021ED8C0061718001B2600810716D8C004179D8000449C800005E9
:2013D800B02F883A98C10626800B883A000F883A01800284E009883A01071E001021883AE6
:2013E000000F883A01800284880B883AE009883A8D00252601071E00A00B883A000F883AD9
:2013E80001800284E009883A1023883A01071E001029883AB027883A003FC0069011883A1C
:2013F00000800E0E800B883A01800044E009883ADA00171501078900A80B883A1009883A9D
:2013F8001021883A01079D80DA0017170081960E00800E4440817026BA000C448825883AEE
:201400009DC000449A000005A023883ADC000915003F240600800E449011883A90816626D2
:2014080005BFF516003FF50601071E001023883A1029883A003FDF06E009883A01071B8033
:2014100000800044003FBC06A80B883A8009883A01079D80103EDB0E800B883A000F883ABD
:2014180001800284E009883A01071E001021883AD8800517D8C00B1710BFFFC4D8800515B7
:20142000183F761ED9000C170101730ED9000615003ED006008000843081861ED8000B15E9
:20142800003F3C06DC000917003E9206D9C003170080008411FEC50ED900061720013C1E47
:20143000A80B883A000F883A01800144E009883A01071E00100B883A8009883A102B883A9A
:2014380001079D80DC00091500BF410ED9C0071700800C4438800005D88005173DC000446E
:2014400010800044D8800515003F3D06D9800517D9C0071700800C4431800044D980051560
:2014480038800005003EDF06D8000B15003C9F06903E7E1E0080043410BFFFC49884703A51
:201450001000EA1E9CDFFC2C9800E826D9C00817B580004404C0004439C00044D9C00815EF
:20145800D8800D17103E721E00800044003E79068009883A010DEAC0D9800F17D9C0101757
:201460001009883A180B883A010CE180000D883A01D007341009883A180B883A010BA2C035
:20146800047F30341021883A1C63883AD9000F17D9401017000D883A01D00534010D5300D0
:20147000800D883A880F883A1009883A180B883A102B883A1829883A010CC48000806C16A1
:2014780089E0003C800D883AA809883AA00B883A010CD240103D7E0E002B883A0023883AB6
:20148000003EFB06D8800717003BD006D9000A17D9800D17DD400A15A905C83A308D883AA4
:20148800D9800D15002B883A003E06069023883A9829883A04000084003C920604000044F6
:20149000DC000C15DC000615DC002215E0001115000B883A003C69063021883A003FFB0664
:201498001000021E4200004C403E7D1E01000C0400000106102F883AB8BFFFC410C0000733
:2014A000193FFC26003E8706D880051700A3C83A8800A426888003CC100490FA00C00474CF
:2014A80018C178041885883A1180001711C001179009883A980B883A8823D13A010CE180FB
:2014B000D8800F15D8C010158800E82605000474A5016E04040000848980004C1009883A00
:2014B8008823D07A180B883A30000426A1800017A1C0011784000044010CE180A50002044E
:2014C000883FF51ED8800F15D8C01015003C760600C00C0410C00005D8C00517BD3FFFC32A
:2014C80018C00044D8C00515003DB90689400117E009883A010711008980041789400304A1
:2014D0001100030431800084318D883A318D883A1027883A0106EA0001800044980B883A9B
:2014D800E009883A010789001029883A003ECC0600800E449080902692000044003F1F06DB
:2014E0009011883A8825883AA023883A003E2906002B883A0023883A003F540661BFFFC4DA
:2014E800300490FA00C0047418C178041885883A1100001711400117D8800717880F883ADA
:2014F000D9801215800D883ADB00161515C00044010CE180D9401017D9000F17D8C015157F
:2014F800D8801415010DE2C01009883A1021883A010DEAC0D9000F17D9401017100D883AFF
:20150000180F883A010D53001829883AD8C0071784000C041023883A1C000005DB00161716
:201508000080004460802226D9C007178805883AB82B883A3B19883A6023883AA007883A68
:20151000DC800F15000D883A01D009341009883A180B883A010CE180180B883A1009883A70
:201518001829883A1025883A010DE2C01009883A1021883A010DEAC0100D883A180F883ABB
:201520009009883AA00B883A84000C04010D5300AD400044AC3FFFC5AC7FEA1E1023883AE6
:20152800D8801217DC800F171829883AB8AF883AD9001417D9401517000D883A01CFF83460
:20153000010BA2C0880D883AA00F883A1009883A180B883A010CD24010003E0ED900131727
:20153800BD3FFFC3D9000515003D3B060027883A003F1B06D880081711E9C83A0005883AE1
:20154000003D540600800044003DC706D8C0021700800D84DD400A1710C5C83ADD00081753
:20154800003D4C06DC800F15DCC0101504000084003BED06D9000617203F0D26D9800C17F9
:2015500001BCAB0ED9401017D9000F17000D883A01D00934010CE18081000044D8800F153A
:20155800D8C01015010DEAC0D9800F17D9C010171009883A180B883A010CE18001D0073485
:20156000000D883A1009883A180B883A010BA2C0D9C00517047F30341021883A39FFFFC4E4
:20156800D9C013151C63883ADB000C17003BEA06DC000915003E0E0601000E448825883A2A
:201570009DC0004499000005A023883ADC000915003DA406D9801417D9C015170009883AA2
:20157800014FF834010D5300880D883AA00F883A1009883A180B883A010CC48000BC7C0E57
:2015800001000C0400000106102F883AB8BFFFC410C00007193FFC26D9801317D9800515B1
:20158800003C4406D9801317D9800515003CEA06DD800F17DCC01017DC801217003C6C0622
:20159000903E031E003EBB06103E6C1E4080004C103E6A26003E6606D8C00317008000842B
:2015980010C02916D9000C17003E880604000084003B9D06D9001317D9000515003CD606E8
:2015A000D8801317D8800515003C2A06D98003170080008411801516D9C00C17D9C0061528
:2015A800003DF706193D392600C00F041885C83A003DDF06E009883AE0001115000B883A22
:2015B00001071100D8800715D8C0071700BFFFC401000044D8800C15E0C01015D9000B15DA
:2015B800D8800615D8002215003C4106D8C00C17D8C00615003E700604400044003B200603
:2015C000000B883A003B3D06D8800C17D8800615003E69062880030BDEFFFB04DCC00315DF
:2015C800DC400115DFC00415DC800215DC00001510C0020C2823883A2027883A1800311E5A
:2015D00028C00117108200142880030D00C04B0E8A000A17400023269C00001710C4000CBD
:2015D80098000015180048268980141710C0010C1800062688C0011788800C1730CDC83AE1
:2015E0001000022688800F17308DC83A89400717000F883A9809883A403EE83A00FFFFC449
:2015E80010C0442688C0030B8900041788000115197DFFCC8940030D8900001518C4000C51
:2015F00018002C1E89400C179C0000152800052688801004288002269809883A0105E8004C
:2015F80088000C150005883ADFC00417DCC00317DC800217DC400117DC000017DEC00504B0
:20160000F800283A2C800417903FF6262C000017108000CC2C80001584A1C83A1000131EF6
:20160800288005178880021504000316003FED0690A5883A043FEB0E88800917894007174E
:20161000800F883A900D883A9809883A103EE83A80A1C83A00BFF61688C0030B00BFFFC471
:2016180018C0101488C0030D003FDF060005883A003FEC0688801415003FD20628C00F17EC
:2016200000FFB316003FD70689400717000D883A01C000449809883A403EE83A100D883A29
:2016280000BFFFC4308014268880030B8A000A17003FAE0698C00017183FBA260100074490
:2016300019000626010005841900042688C0030B18C0101488C0030D003FC3068880030BC0
:2016380088C004178800011510BDFFCC8880030D88C00015003FB30698800017103FEA26FE
:2016400000C0074410C0022600C0058410C0031E9C0000150005883A003FB30688C0030B87
:201648003005883A18C0101488C0030D003FAE06DEFFFD04DC000115DFC002152021883ABB
:201650002000022620800E1710000C262880030F1000051E0005883ADFC00217DC000117CB
:20165800DEC00304F800283A8009883ADFC00217DC000117DEC0030401057141D9400015F1
:201660000105D0C0D9400017003FF00620000526008004741085B604200B883A11000017C8
:2016680001059301008004741085B504110000170140043429564C04010625410005883ADE
:20167000F800283A014004742967110401062541DEFFF70400C00434DFC00815DDC00715F0
:20167800DD800615DD400515DD000415DCC00315DC800215DC400115DC00001518D6710400
:201680002400011720C00F152080BB0400C000C420C0B9152080BA152000B81505C0020452
:20168800008001042025883AB80D883A81001704000B883A80000015800001158000021504
:201690008080030D800019158000038D8000041580000515800006150106FE80058004741C
:2016980094400217054004740500047404C00474B5A07504AD608C04A520AB049CE0C204AE
:2016A000858008158540091585000A1584C00B1584000715008002848880030D008000449B
:2016A800B80D883A89001704000B883A880000158800011588000215880019158880038D02
:2016B0008800041588000515880006150106FE8094000317008004848C4007158D800815E7
:2016B8008D4009158D000A158CC00B158080030D0080008480000015800001158000021539
:2016C000800019158080038D800004158000051580000615B80D883A000B883A810017040E
:2016C8000106FE800080004484000715858008158540091585000A1584C00B1590800E15D9
:2016D000DFC00817DDC00717DD800617DD400517DD000417DCC00317DC800217DC40011777
:2016D800DC000017DEC00904F800283A0005883AF800283ADEFFFC04DC4001152C7FFFC45C
:2016E0008C401A24DC8002152825883A89401D04DC000015DFC0031501065B001021883A77
:2016E800100007261100030410000015148001151100021589801A04000B883A0106FE801D
:2016F0008005883ADFC00317DC800217DC400117DC000017DEC00404F800283ADEFFFB0462
:2016F800DC000015040004748405B504DCC003152027883A81000017DFC00415DC800215A3
:2017000020800E17DC4001151000021E01059D00810000172480B804047FFFC49100011718
:2017080094000217213FFFC420000A168080030F10000C2680C01D040000020618BFE60F28
:2017100010000826213FFFC41C3FFD0418C01A04247FFA1E9080001710001D261025883ADA
:20171800003FEE0600BFFFC48080038D008000448080030D800019158000001580000215BE
:201720008000011580000415800005158000061501800204000B883A810017040106FE80D0
:201728008005883A80000C1580000D158000111580001215DFC00417DCC00317DC800217E5
:20173000DC400117DC000017DEC00504F800283A014001049809883A0105B74090800015A6
:20173800103FDE1E00800304988000150005883A003FF006008004741085B5041100001728
:2017400001400474296711040106254120800E1710000126F800283A01059D01F800283A6A
:20174800F800283AF800283AF800283A008004741085B60411000017014004342956DB042D
:2017500001061901008004741085B604110000170140043429566F0401061901DEFFFB0481
:20175800DCC0031504C00474DC800215DC400115DC000015DFC004152821883A9CC41804AC
:201760002025883A010E5AC0988002171440011700BFFF0488A2703A8C21C83A8403FBC411
:201768008020D33A0083FFC4843FFFC48020933A1400060E000B883A9009883A010818000A
:2017700098C002171C47883A10C00A269009883A010E5D000005883ADFC00417DCC00317C5
:20177800DC800217DC400117DC000017DEC00504F800283A040BC83A9009883A0108180027
:2017800000FFFFC410C00D2600C0047418C9DF0418800017990002178C23C83A8C40005456
:201788001421C83A244001159009883A1C000015010E5D0000800044003FE706000B883ADB
:201790009009883A0108180099000217014003C41107C83A28FFDD0E014004742945B804F4
:201798002940001718C0005420C0011500C004741145C83A18C9DF0418800015003FD30676
:2017A00028004126DEFFFD04DC400115DC0000152023883A2821883ADFC00215010E5AC0AA
:2017A80081FFFF1700BFFF840100047481BFFE043884703A21041804308B883A2A400117E8
:2017B0002200021700FFFF0448C6703A2A00572628C0011539C0004C3800091E823FFE1705
:2017B80022400204320DC83A31C002171205883A3A406526320003173A00031541C00215CA
:2017C00028CF883A39C0011739C0004C38003A2610C0005430C001153087883A1880001512
:2017C80000C07FC4188019361004D0FA01C000442140011710C0004418C7883A1005D0BA67
:2017D00018C7883A18C7883A1907883A3884983A19C000171A3FFE041144B03A3200031573
:2017D80031C002152080011519800015398003158809883ADFC00217DC400117DC00001782
:2017E000DEC00304010E5D01F800283A100AD27A00C0010419404A36100AD1BA28C00E449A
:2017E80018C7883A29400E0418C7883A18C7883A1909883A20C0001701C00474213FFE040D
:2017F00039C4180420C0442601FFFF041940011729CA703A1140022E18C0021720FFFB1EBB
:2017F800190003173100031530C002152180021519800315003FDE0629C0021710C5883A29
:2018000000C0047418C41A0438C03B262A000317114000543087883A3A00031541C0021571
:201808003140011518800015003FBD0639C0004C10C5883A3800071E81FFFE1731CDC83ABC
:2018100030C003173140021711C5883A28C003151940021510C0005430C0011500C00474BA
:2018180018C5B90418C000172180021510FFC036008004741089D304114000178809883A47
:201820000105D5C0003FBA0628C9883A210001172100004C2000391E29C0021729000317F9
:201828001885883A10C000543900031521C0021530C00115308D883A30800015003FAC0699
:2018300000C005041940153628C0170418C7883A294016C4003FB406280BD0BA00C000448A
:2018380038800117194A983A2007883A2884B03A38800115003FBB062180051521800415C9
:2018400010C0005431C0031531C0021530C00115308D883A30800015003F950600C0150456
:2018480019400536100AD33A28C01BC418C7883A29401B84003F9C0600C0550419400536C7
:20185000100AD3FA28C01E0418C7883A29401DC4003F950600C1550419400536100AD4BA6C
:2018580028C01F4418C7883A29401F04003F8E0600C03F8401401F84003F8B0610C00054CA
:2018600030C00115308D883A30800015003F7806DEFFF704DD000415DFC00815DDC007151E
:20186800DD800615DD400515DCC00315DC800215DC400115DC0000152500B804A00023269D
:20187000282B883A002F883A0580004404FFFFC4A4400117A48002178C7FFFC488000D1611
:2018780094000304948003848080000B8C7FFFC4813FFD04B080042E9080000F14C0022603
:20188000A83EE83AB8AEB03A84001A0494801A048CFFF51EA5000017A03FED1EB805883A59
:20188800DFC00817DDC00717DD800617DD400517DD000417DCC00317DC800217DC400117BD
:20189000DC000017DEC00904F800283A002F883A003FF206DEFFF704DD000415DFC008158E
:20189800DDC00715DD800615DD400515DCC00315DC800215DC400115DC0000152500B8049D
:2018A000A0002326282B883A2027883A002F883A0580004404BFFFC4A4400117A400021728
:2018A8008C7FFFC488000C16840003048080000B8C7FFFC4817FFD04B080052E8080008F51
:2018B0009809883A14800226A83EE83AB8AEB03A84001A048CBFF51EA5000017A03FEE1EFA
:2018B800B805883ADFC00817DDC00717DD800617DD400517DD000417DCC00317DC80021742
:2018C000DC400117DC000017DEC00904F800283A002F883A003FF20630001B26014004748A
:2018C800DEFFFE0429415E043009883ADC000015DFC001153021883A010831001000061E33
:2018D0000080047410815D04DFC00117DC000017DEC00204F800283A0140047429415D04E2
:2018D8008009883A01083100103FF52601400474294148048009883A01083100103FF026A8
:2018E0000005883A003FF0060080047410815D04F800283A0080047410840204F800283ABC
:2018E800008004741085B70410800017F800283A008004741083FA04F800283A0005883AED
:2018F000F800283A0080047410840A04F800283A008004741085B604280D883A200B883A5F
:2018F80011000017010631810080047410840A04F800283A2880030B10C0008C1800411E72
:20190000DEFFEC04DC000F152821883A2940038FDC401015DFC01315DCC01215DC801115A7
:201908002023883A28001C16D80D883A0109F50010001816D880011700E0001410BC000C40
:2019100014C8002010C0372680C0030B18C2001480C0030D00C8000410C0521E8140038FA3
:201918008809883A010A468010004C268080030B80C010C480C00015108000548080030D9E
:201920000080004480C004158080051504810004000007068080030B10C0200C18001F1E7B
:2019280004810004108200148080030D0027883A900B883A8809883A01065B0010002C2603
:2019300080C0030B010004342116710489000F1518C0201480C0030D80800015808004152D
:201938008480051598001A1EDFC01317DCC01217DC801117DC401017DC000F17DEC0140494
:20194000F800283A288010C428800015288004150080004428800515F800283A04801004BB
:20194800003FE00681000A1700C0047418E0AB0420FFC51E8080030B048100048480131514
:201950001484B03A8080030D0027883A003FD8068140038F8809883A010A4680103FE22611
:201958008080030B108000548080030D003FDE068080030B10C0800C183FDB1E108000946C
:2019600080C010C48080030D0080004480C0001580C0041580800515003FD3060481000416
:20196800003FC3060027883A04810004003FC006DEFFF504DC800315DFC00A15DF000915DB
:20197000DDC00815DD800715DD400615DD000515DCC00415DC400215DC000115288002C4AD
:2019780000C005842025883A18807F2E047FFE041462703A8800A3168940A236010E5AC00A
:2019800000807DC41441E92E8804D27A1000A12600C0010418811E368804D1BA12000E443E
:2019880011C00E044209883A04C004742109883A9CC418042109883A9909883A240001171F
:20199000213FFE04240097268080011701BFFF04014003C41184703A1447C83A28C0071670
:201998001800920E8400031724008E26808001171184703A1447C83A28FFF90E3809883A1C
:2019A000018004749C00041731841804320002048201342680C0011700BFFF04188E703A27
:2019A8003C45C83A00C003C418811F16320005153200041510007F0E00807FC411C0FD364C
:2019B0003806D0FA01C000443080011719400044294B883A1807D0BA294B883A294B883A5A
:2019B800298B883A38C6983A29C000172A7FFE041886B03A8240031581C0021530C001155E
:2019C0002C0000153C0003152005D0BA01400044288A983A19406F3628C4703A10000A1EEE
:2019C80000BFFF04294B883A2088703A28C4703A210001041000041E294B883A28C4703AFB
:2019D00021000104103FFC2602BFFF04024003C421800044318D883A318D883A318D883A2E
:2019D800998D883A333FFE042017883A318001043400001731FFFD0481C0041E0000FB0604
:2019E0001801030E8400031781C0F826808001171284703A1447C83A48FFF90E80800317A3
:2019E80081000217894000548140011520800315110002158463883A9C4005159C400415DD
:2019F00018800054888001158A0003158A00021588E3883A88C000159009883A010E5D0039
:2019F8008080020400001B060440040489402536010E5AC0008001840100008404C0047449
:201A00001085883A9CC418041085883A9885883A1400011710FFFE0480C0D92680C00117E9
:201A08008100031700BFFF041884703A814002178085883A10C001172900031521400215D9
:201A100018C0005410C001159009883A010E5D0080800204DFC00A17DF000917DDC008175C
:201A1800DD800717DD400617DD000517DCC00417DC800317DC400217DC000117DEC00B04FD
:201A2000F800283A00800304908000150005883A003FF006010020040200100401C00FC4D5
:201A2800003F61064009883A003F750681000317003FDE0681C5883A114001179009883AA9
:201A30002940005411400115010E5D0080800204003FE0069C00021700BFFF048580011747
:201A3800B0AC703AB4400336B445C83A00C003C418805D1605C00474008004741089D30429
:201A4000BDC5B80415400017B8C0001700BFFFC4858D883A8D6B883A1880EA26AD4403C4DD
